{
  "_format": "hh-sol-artifact-1",
  "contractName": "AVAXGods",
  "sourceName": "contracts/AvaxGods.sol",
  "abi": [
    {
      "inputs": [
        {
          "internalType": "string",
          "name": "_metadataURI",
          "type": "string"
        }
      ],
      "stateMutability": "nonpayable",
      "type": "constructor"
    },
    {
      "anonymous": false,
      "inputs": [
        {
          "indexed": true,
          "internalType": "address",
          "name": "account",
          "type": "address"
        },
        {
          "indexed": true,
          "internalType": "address",
          "name": "operator",
          "type": "address"
        },
        {
          "indexed": false,
          "internalType": "bool",
          "name": "approved",
          "type": "bool"
        }
      ],
      "name": "ApprovalForAll",
      "type": "event"
    },
    {
      "anonymous": false,
      "inputs": [
        {
          "indexed": false,
          "internalType": "string",
          "name": "battleName",
          "type": "string"
        },
        {
          "indexed": true,
          "internalType": "address",
          "name": "winner",
          "type": "address"
        },
        {
          "indexed": true,
          "internalType": "address",
          "name": "loser",
          "type": "address"
        }
      ],
      "name": "BattleEnded",
      "type": "event"
    },
    {
      "anonymous": false,
      "inputs": [
        {
          "indexed": true,
          "internalType": "string",
          "name": "battleName",
          "type": "string"
        },
        {
          "indexed": true,
          "internalType": "bool",
          "name": "isFirstMove",
          "type": "bool"
        }
      ],
      "name": "BattleMove",
      "type": "event"
    },
    {
      "anonymous": false,
      "inputs": [
        {
          "indexed": false,
          "internalType": "string",
          "name": "battleName",
          "type": "string"
        },
        {
          "indexed": true,
          "internalType": "address",
          "name": "player1",
          "type": "address"
        },
        {
          "indexed": true,
          "internalType": "address",
          "name": "player2",
          "type": "address"
        }
      ],
      "name": "NewBattle",
      "type": "event"
    },
    {
      "anonymous": false,
      "inputs": [
        {
          "indexed": true,
          "internalType": "address",
          "name": "owner",
          "type": "address"
        },
        {
          "indexed": false,
          "internalType": "uint256",
          "name": "id",
          "type": "uint256"
        },
        {
          "indexed": false,
          "internalType": "uint256",
          "name": "attackStrength",
          "type": "uint256"
        },
        {
          "indexed": false,
          "internalType": "uint256",
          "name": "defenseStrength",
          "type": "uint256"
        }
      ],
      "name": "NewGameToken",
      "type": "event"
    },
    {
      "anonymous": false,
      "inputs": [
        {
          "indexed": true,
          "internalType": "address",
          "name": "owner",
          "type": "address"
        },
        {
          "indexed": false,
          "internalType": "string",
          "name": "name",
          "type": "string"
        }
      ],
      "name": "NewPlayer",
      "type": "event"
    },
    {
      "anonymous": false,
      "inputs": [
        {
          "indexed": true,
          "internalType": "address",
          "name": "previousOwner",
          "type": "address"
        },
        {
          "indexed": true,
          "internalType": "address",
          "name": "newOwner",
          "type": "address"
        }
      ],
      "name": "OwnershipTransferred",
      "type": "event"
    },
    {
      "anonymous": false,
      "inputs": [
        {
          "indexed": false,
          "internalType": "address[2]",
          "name": "damagedPlayers",
          "type": "address[2]"
        }
      ],
      "name": "RoundEnded",
      "type": "event"
    },
    {
      "anonymous": false,
      "inputs": [
        {
          "indexed": true,
          "internalType": "address",
          "name": "operator",
          "type": "address"
        },
        {
          "indexed": true,
          "internalType": "address",
          "name": "from",
          "type": "address"
        },
        {
          "indexed": true,
          "internalType": "address",
          "name": "to",
          "type": "address"
        },
        {
          "indexed": false,
          "internalType": "uint256[]",
          "name": "ids",
          "type": "uint256[]"
        },
        {
          "indexed": false,
          "internalType": "uint256[]",
          "name": "values",
          "type": "uint256[]"
        }
      ],
      "name": "TransferBatch",
      "type": "event"
    },
    {
      "anonymous": false,
      "inputs": [
        {
          "indexed": true,
          "internalType": "address",
          "name": "operator",
          "type": "address"
        },
        {
          "indexed": true,
          "internalType": "address",
          "name": "from",
          "type": "address"
        },
        {
          "indexed": true,
          "internalType": "address",
          "name": "to",
          "type": "address"
        },
        {
          "indexed": false,
          "internalType": "uint256",
          "name": "id",
          "type": "uint256"
        },
        {
          "indexed": false,
          "internalType": "uint256",
          "name": "value",
          "type": "uint256"
        }
      ],
      "name": "TransferSingle",
      "type": "event"
    },
    {
      "anonymous": false,
      "inputs": [
        {
          "indexed": false,
          "internalType": "string",
          "name": "value",
          "type": "string"
        },
        {
          "indexed": true,
          "internalType": "uint256",
          "name": "id",
          "type": "uint256"
        }
      ],
      "name": "URI",
      "type": "event"
    },
    {
      "inputs": [],
      "name": "CELESTION",
      "outputs": [
        {
          "internalType": "uint256",
          "name": "",
          "type": "uint256"
        }
      ],
      "stateMutability": "view",
      "type": "function"
    },
    {
      "inputs": [],
      "name": "DEVIL",
      "outputs": [
        {
          "internalType": "uint256",
          "name": "",
          "type": "uint256"
        }
      ],
      "stateMutability": "view",
      "type": "function"
    },
    {
      "inputs": [],
      "name": "FIREBIRD",
      "outputs": [
        {
          "internalType": "uint256",
          "name": "",
          "type": "uint256"
        }
      ],
      "stateMutability": "view",
      "type": "function"
    },
    {
      "inputs": [],
      "name": "GRIFFIN",
      "outputs": [
        {
          "internalType": "uint256",
          "name": "",
          "type": "uint256"
        }
      ],
      "stateMutability": "view",
      "type": "function"
    },
    {
      "inputs": [],
      "name": "KAMO",
      "outputs": [
        {
          "internalType": "uint256",
          "name": "",
          "type": "uint256"
        }
      ],
      "stateMutability": "view",
      "type": "function"
    },
    {
      "inputs": [],
      "name": "KUKULKAN",
      "outputs": [
        {
          "internalType": "uint256",
          "name": "",
          "type": "uint256"
        }
      ],
      "stateMutability": "view",
      "type": "function"
    },
    {
      "inputs": [],
      "name": "MAX_ATTACK_DEFEND_STRENGTH",
      "outputs": [
        {
          "internalType": "uint256",
          "name": "",
          "type": "uint256"
        }
      ],
      "stateMutability": "view",
      "type": "function"
    },
    {
      "inputs": [
        {
          "internalType": "uint8",
          "name": "_choice",
          "type": "uint8"
        },
        {
          "internalType": "string",
          "name": "_battleName",
          "type": "string"
        }
      ],
      "name": "attackOrDefendChoice",
      "outputs": [],
      "stateMutability": "nonpayable",
      "type": "function"
    },
    {
      "inputs": [
        {
          "internalType": "address",
          "name": "account",
          "type": "address"
        },
        {
          "internalType": "uint256",
          "name": "id",
          "type": "uint256"
        }
      ],
      "name": "balanceOf",
      "outputs": [
        {
          "internalType": "uint256",
          "name": "",
          "type": "uint256"
        }
      ],
      "stateMutability": "view",
      "type": "function"
    },
    {
      "inputs": [
        {
          "internalType": "address[]",
          "name": "accounts",
          "type": "address[]"
        },
        {
          "internalType": "uint256[]",
          "name": "ids",
          "type": "uint256[]"
        }
      ],
      "name": "balanceOfBatch",
      "outputs": [
        {
          "internalType": "uint256[]",
          "name": "",
          "type": "uint256[]"
        }
      ],
      "stateMutability": "view",
      "type": "function"
    },
    {
      "inputs": [],
      "name": "baseURI",
      "outputs": [
        {
          "internalType": "string",
          "name": "",
          "type": "string"
        }
      ],
      "stateMutability": "view",
      "type": "function"
    },
    {
      "inputs": [
        {
          "internalType": "string",
          "name": "",
          "type": "string"
        }
      ],
      "name": "battleInfo",
      "outputs": [
        {
          "internalType": "uint256",
          "name": "",
          "type": "uint256"
        }
      ],
      "stateMutability": "view",
      "type": "function"
    },
    {
      "inputs": [
        {
          "internalType": "uint256",
          "name": "",
          "type": "uint256"
        }
      ],
      "name": "battles",
      "outputs": [
        {
          "internalType": "enum AVAXGods.BattleStatus",
          "name": "battleStatus",
          "type": "uint8"
        },
        {
          "internalType": "bytes32",
          "name": "battleHash",
          "type": "bytes32"
        },
        {
          "internalType": "string",
          "name": "name",
          "type": "string"
        },
        {
          "internalType": "address",
          "name": "winner",
          "type": "address"
        }
      ],
      "stateMutability": "view",
      "type": "function"
    },
    {
      "inputs": [
        {
          "internalType": "string",
          "name": "_name",
          "type": "string"
        }
      ],
      "name": "createBattle",
      "outputs": [
        {
          "components": [
            {
              "internalType": "enum AVAXGods.BattleStatus",
              "name": "battleStatus",
              "type": "uint8"
            },
            {
              "internalType": "bytes32",
              "name": "battleHash",
              "type": "bytes32"
            },
            {
              "internalType": "string",
              "name": "name",
              "type": "string"
            },
            {
              "internalType": "address[2]",
              "name": "players",
              "type": "address[2]"
            },
            {
              "internalType": "uint8[2]",
              "name": "moves",
              "type": "uint8[2]"
            },
            {
              "internalType": "address",
              "name": "winner",
              "type": "address"
            }
          ],
          "internalType": "struct AVAXGods.Battle",
          "name": "",
          "type": "tuple"
        }
      ],
      "stateMutability": "nonpayable",
      "type": "function"
    },
    {
      "inputs": [
        {
          "internalType": "string",
          "name": "_name",
          "type": "string"
        }
      ],
      "name": "createRandomGameToken",
      "outputs": [],
      "stateMutability": "nonpayable",
      "type": "function"
    },
    {
      "inputs": [
        {
          "internalType": "uint256",
          "name": "id",
          "type": "uint256"
        }
      ],
      "name": "exists",
      "outputs": [
        {
          "internalType": "bool",
          "name": "",
          "type": "bool"
        }
      ],
      "stateMutability": "view",
      "type": "function"
    },
    {
      "inputs": [
        {
          "internalType": "uint256",
          "name": "",
          "type": "uint256"
        }
      ],
      "name": "gameTokens",
      "outputs": [
        {
          "internalType": "string",
          "name": "name",
          "type": "string"
        },
        {
          "internalType": "uint256",
          "name": "id",
          "type": "uint256"
        },
        {
          "internalType": "uint256",
          "name": "attackStrength",
          "type": "uint256"
        },
        {
          "internalType": "uint256",
          "name": "defenseStrength",
          "type": "uint256"
        }
      ],
      "stateMutability": "view",
      "type": "function"
    },
    {
      "inputs": [],
      "name": "getAllBattles",
      "outputs": [
        {
          "components": [
            {
              "internalType": "enum AVAXGods.BattleStatus",
              "name": "battleStatus",
              "type": "uint8"
            },
            {
              "internalType": "bytes32",
              "name": "battleHash",
              "type": "bytes32"
            },
            {
              "internalType": "string",
              "name": "name",
              "type": "string"
            },
            {
              "internalType": "address[2]",
              "name": "players",
              "type": "address[2]"
            },
            {
              "internalType": "uint8[2]",
              "name": "moves",
              "type": "uint8[2]"
            },
            {
              "internalType": "address",
              "name": "winner",
              "type": "address"
            }
          ],
          "internalType": "struct AVAXGods.Battle[]",
          "name": "",
          "type": "tuple[]"
        }
      ],
      "stateMutability": "view",
      "type": "function"
    },
    {
      "inputs": [],
      "name": "getAllPlayerTokens",
      "outputs": [
        {
          "components": [
            {
              "internalType": "string",
              "name": "name",
              "type": "string"
            },
            {
              "internalType": "uint256",
              "name": "id",
              "type": "uint256"
            },
            {
              "internalType": "uint256",
              "name": "attackStrength",
              "type": "uint256"
            },
            {
              "internalType": "uint256",
              "name": "defenseStrength",
              "type": "uint256"
            }
          ],
          "internalType": "struct AVAXGods.GameToken[]",
          "name": "",
          "type": "tuple[]"
        }
      ],
      "stateMutability": "view",
      "type": "function"
    },
    {
      "inputs": [],
      "name": "getAllPlayers",
      "outputs": [
        {
          "components": [
            {
              "internalType": "address",
              "name": "playerAddress",
              "type": "address"
            },
            {
              "internalType": "string",
              "name": "playerName",
              "type": "string"
            },
            {
              "internalType": "uint256",
              "name": "playerMana",
              "type": "uint256"
            },
            {
              "internalType": "uint256",
              "name": "playerHealth",
              "type": "uint256"
            },
            {
              "internalType": "bool",
              "name": "inBattle",
              "type": "bool"
            }
          ],
          "internalType": "struct AVAXGods.Player[]",
          "name": "",
          "type": "tuple[]"
        }
      ],
      "stateMutability": "view",
      "type": "function"
    },
    {
      "inputs": [
        {
          "internalType": "string",
          "name": "_name",
          "type": "string"
        }
      ],
      "name": "getBattle",
      "outputs": [
        {
          "components": [
            {
              "internalType": "enum AVAXGods.BattleStatus",
              "name": "battleStatus",
              "type": "uint8"
            },
            {
              "internalType": "bytes32",
              "name": "battleHash",
              "type": "bytes32"
            },
            {
              "internalType": "string",
              "name": "name",
              "type": "string"
            },
            {
              "internalType": "address[2]",
              "name": "players",
              "type": "address[2]"
            },
            {
              "internalType": "uint8[2]",
              "name": "moves",
              "type": "uint8[2]"
            },
            {
              "internalType": "address",
              "name": "winner",
              "type": "address"
            }
          ],
          "internalType": "struct AVAXGods.Battle",
          "name": "",
          "type": "tuple"
        }
      ],
      "stateMutability": "view",
      "type": "function"
    },
    {
      "inputs": [
        {
          "internalType": "string",
          "name": "_battleName",
          "type": "string"
        }
      ],
      "name": "getBattleMoves",
      "outputs": [
        {
          "internalType": "uint256",
          "name": "P1Move",
          "type": "uint256"
        },
        {
          "internalType": "uint256",
          "name": "P2Move",
          "type": "uint256"
        }
      ],
      "stateMutability": "view",
      "type": "function"
    },
    {
      "inputs": [
        {
          "internalType": "address",
          "name": "addr",
          "type": "address"
        }
      ],
      "name": "getPlayer",
      "outputs": [
        {
          "components": [
            {
              "internalType": "address",
              "name": "playerAddress",
              "type": "address"
            },
            {
              "internalType": "string",
              "name": "playerName",
              "type": "string"
            },
            {
              "internalType": "uint256",
              "name": "playerMana",
              "type": "uint256"
            },
            {
              "internalType": "uint256",
              "name": "playerHealth",
              "type": "uint256"
            },
            {
              "internalType": "bool",
              "name": "inBattle",
              "type": "bool"
            }
          ],
          "internalType": "struct AVAXGods.Player",
          "name": "",
          "type": "tuple"
        }
      ],
      "stateMutability": "view",
      "type": "function"
    },
    {
      "inputs": [
        {
          "internalType": "address",
          "name": "addr",
          "type": "address"
        }
      ],
      "name": "getPlayerToken",
      "outputs": [
        {
          "components": [
            {
              "internalType": "string",
              "name": "name",
              "type": "string"
            },
            {
              "internalType": "uint256",
              "name": "id",
              "type": "uint256"
            },
            {
              "internalType": "uint256",
              "name": "attackStrength",
              "type": "uint256"
            },
            {
              "internalType": "uint256",
              "name": "defenseStrength",
              "type": "uint256"
            }
          ],
          "internalType": "struct AVAXGods.GameToken",
          "name": "",
          "type": "tuple"
        }
      ],
      "stateMutability": "view",
      "type": "function"
    },
    {
      "inputs": [],
      "name": "getTotalSupply",
      "outputs": [
        {
          "internalType": "uint256",
          "name": "",
          "type": "uint256"
        }
      ],
      "stateMutability": "view",
      "type": "function"
    },
    {
      "inputs": [
        {
          "internalType": "address",
          "name": "account",
          "type": "address"
        },
        {
          "internalType": "address",
          "name": "operator",
          "type": "address"
        }
      ],
      "name": "isApprovedForAll",
      "outputs": [
        {
          "internalType": "bool",
          "name": "",
          "type": "bool"
        }
      ],
      "stateMutability": "view",
      "type": "function"
    },
    {
      "inputs": [
        {
          "internalType": "string",
          "name": "_name",
          "type": "string"
        }
      ],
      "name": "isBattle",
      "outputs": [
        {
          "internalType": "bool",
          "name": "",
          "type": "bool"
        }
      ],
      "stateMutability": "view",
      "type": "function"
    },
    {
      "inputs": [
        {
          "internalType": "address",
          "name": "addr",
          "type": "address"
        }
      ],
      "name": "isPlayer",
      "outputs": [
        {
          "internalType": "bool",
          "name": "",
          "type": "bool"
        }
      ],
      "stateMutability": "view",
      "type": "function"
    },
    {
      "inputs": [
        {
          "internalType": "address",
          "name": "addr",
          "type": "address"
        }
      ],
      "name": "isPlayerToken",
      "outputs": [
        {
          "internalType": "bool",
          "name": "",
          "type": "bool"
        }
      ],
      "stateMutability": "view",
      "type": "function"
    },
    {
      "inputs": [
        {
          "internalType": "string",
          "name": "_name",
          "type": "string"
        }
      ],
      "name": "joinBattle",
      "outputs": [
        {
          "components": [
            {
              "internalType": "enum AVAXGods.BattleStatus",
              "name": "battleStatus",
              "type": "uint8"
            },
            {
              "internalType": "bytes32",
              "name": "battleHash",
              "type": "bytes32"
            },
            {
              "internalType": "string",
              "name": "name",
              "type": "string"
            },
            {
              "internalType": "address[2]",
              "name": "players",
              "type": "address[2]"
            },
            {
              "internalType": "uint8[2]",
              "name": "moves",
              "type": "uint8[2]"
            },
            {
              "internalType": "address",
              "name": "winner",
              "type": "address"
            }
          ],
          "internalType": "struct AVAXGods.Battle",
          "name": "",
          "type": "tuple"
        }
      ],
      "stateMutability": "nonpayable",
      "type": "function"
    },
    {
      "inputs": [],
      "name": "owner",
      "outputs": [
        {
          "internalType": "address",
          "name": "",
          "type": "address"
        }
      ],
      "stateMutability": "view",
      "type": "function"
    },
    {
      "inputs": [
        {
          "internalType": "address",
          "name": "",
          "type": "address"
        }
      ],
      "name": "playerInfo",
      "outputs": [
        {
          "internalType": "uint256",
          "name": "",
          "type": "uint256"
        }
      ],
      "stateMutability": "view",
      "type": "function"
    },
    {
      "inputs": [
        {
          "internalType": "address",
          "name": "",
          "type": "address"
        }
      ],
      "name": "playerTokenInfo",
      "outputs": [
        {
          "internalType": "uint256",
          "name": "",
          "type": "uint256"
        }
      ],
      "stateMutability": "view",
      "type": "function"
    },
    {
      "inputs": [
        {
          "internalType": "uint256",
          "name": "",
          "type": "uint256"
        }
      ],
      "name": "players",
      "outputs": [
        {
          "internalType": "address",
          "name": "playerAddress",
          "type": "address"
        },
        {
          "internalType": "string",
          "name": "playerName",
          "type": "string"
        },
        {
          "internalType": "uint256",
          "name": "playerMana",
          "type": "uint256"
        },
        {
          "internalType": "uint256",
          "name": "playerHealth",
          "type": "uint256"
        },
        {
          "internalType": "bool",
          "name": "inBattle",
          "type": "bool"
        }
      ],
      "stateMutability": "view",
      "type": "function"
    },
    {
      "inputs": [
        {
          "internalType": "string",
          "name": "_battleName",
          "type": "string"
        }
      ],
      "name": "quitBattle",
      "outputs": [],
      "stateMutability": "nonpayable",
      "type": "function"
    },
    {
      "inputs": [
        {
          "internalType": "string",
          "name": "_name",
          "type": "string"
        },
        {
          "internalType": "string",
          "name": "_gameTokenName",
          "type": "string"
        }
      ],
      "name": "registerPlayer",
      "outputs": [],
      "stateMutability": "nonpayable",
      "type": "function"
    },
    {
      "inputs": [],
      "name": "renounceOwnership",
      "outputs": [],
      "stateMutability": "nonpayable",
      "type": "function"
    },
    {
      "inputs": [
        {
          "internalType": "address",
          "name": "from",
          "type": "address"
        },
        {
          "internalType": "address",
          "name": "to",
          "type": "address"
        },
        {
          "internalType": "uint256[]",
          "name": "ids",
          "type": "uint256[]"
        },
        {
          "internalType": "uint256[]",
          "name": "amounts",
          "type": "uint256[]"
        },
        {
          "internalType": "bytes",
          "name": "data",
          "type": "bytes"
        }
      ],
      "name": "safeBatchTransferFrom",
      "outputs": [],
      "stateMutability": "nonpayable",
      "type": "function"
    },
    {
      "inputs": [
        {
          "internalType": "address",
          "name": "from",
          "type": "address"
        },
        {
          "internalType": "address",
          "name": "to",
          "type": "address"
        },
        {
          "internalType": "uint256",
          "name": "id",
          "type": "uint256"
        },
        {
          "internalType": "uint256",
          "name": "amount",
          "type": "uint256"
        },
        {
          "internalType": "bytes",
          "name": "data",
          "type": "bytes"
        }
      ],
      "name": "safeTransferFrom",
      "outputs": [],
      "stateMutability": "nonpayable",
      "type": "function"
    },
    {
      "inputs": [
        {
          "internalType": "address",
          "name": "operator",
          "type": "address"
        },
        {
          "internalType": "bool",
          "name": "approved",
          "type": "bool"
        }
      ],
      "name": "setApprovalForAll",
      "outputs": [],
      "stateMutability": "nonpayable",
      "type": "function"
    },
    {
      "inputs": [
        {
          "internalType": "string",
          "name": "newuri",
          "type": "string"
        }
      ],
      "name": "setURI",
      "outputs": [],
      "stateMutability": "nonpayable",
      "type": "function"
    },
    {
      "inputs": [
        {
          "internalType": "bytes4",
          "name": "interfaceId",
          "type": "bytes4"
        }
      ],
      "name": "supportsInterface",
      "outputs": [
        {
          "internalType": "bool",
          "name": "",
          "type": "bool"
        }
      ],
      "stateMutability": "view",
      "type": "function"
    },
    {
      "inputs": [
        {
          "internalType": "uint256",
          "name": "tokenId",
          "type": "uint256"
        }
      ],
      "name": "tokenURI",
      "outputs": [
        {
          "internalType": "string",
          "name": "",
          "type": "string"
        }
      ],
      "stateMutability": "view",
      "type": "function"
    },
    {
      "inputs": [],
      "name": "totalSupply",
      "outputs": [
        {
          "internalType": "uint256",
          "name": "",
          "type": "uint256"
        }
      ],
      "stateMutability": "view",
      "type": "function"
    },
    {
      "inputs": [
        {
          "internalType": "uint256",
          "name": "id",
          "type": "uint256"
        }
      ],
      "name": "totalSupply",
      "outputs": [
        {
          "internalType": "uint256",
          "name": "",
          "type": "uint256"
        }
      ],
      "stateMutability": "view",
      "type": "function"
    },
    {
      "inputs": [
        {
          "internalType": "address",
          "name": "newOwner",
          "type": "address"
        }
      ],
      "name": "transferOwnership",
      "outputs": [],
      "stateMutability": "nonpayable",
      "type": "function"
    },
    {
      "inputs": [
        {
          "internalType": "uint256",
          "name": "",
          "type": "uint256"
        }
      ],
      "name": "uri",
      "outputs": [
        {
          "internalType": "string",
          "name": "",
          "type": "string"
        }
      ],
      "stateMutability": "view",
      "type": "function"
    }
  ],
  "bytecode": "0x608060405234801561001057600080fd5b5060405161566738038061566783398101604081905261002f91610458565b806100398161005e565b506100433361006e565b600561004f82826105ad565b506100586100c0565b50610681565b600261006a82826105ad565b5050565b600380546001600160a01b038381166001600160a01b0319831681179093556040519116919082907f8be0079c531659141344cd1fd0a4f28419497f9722a3daafe3b4186f6b6457e090600090a35050565b6040805160a08101825260006080820181815282526020820181905291810182905260608101829052600b80546001810182559252805190916004027f0175b7a638427703f0dbe7bb9bbf987a2551717b34e79f33b5b1008d1fa01db90190819061012b90826105ad565b506020828101516001838101919091556040808501516002850155606094850151600390940193909355825160a08101845260008082528451808501865281815293820193845293810184905293840183905260808401839052600a8054918201815590925282517fc65a7bb8d6351c1cf70c95a316cc6a92839c986682d98bc35f958f4883f9d2a8600590930292830180546001600160a01b0319166001600160a01b03909216919091178155905190917fc65a7bb8d6351c1cf70c95a316cc6a92839c986682d98bc35f958f4883f9d2a9019061020a90826105ad565b506040828101516002830155606083015160038301556080909201516004909101805460ff1916911515919091179055805160c08101909152600c90806000815260006020808301829052604080518083018252838152818501528051808201825283815280830184905260608501528051808201909152828152808201839052608084015260a09092018190528354600181810186559482529190208251600790920201805492939092839160ff19909116908360028111156102d0576102d061066b565b021790555060208201516001820155604082015160028201906102f390826105ad565b506060820151610309906003830190600261034b565b50608082015161031f90600583019060026103a3565b5060a09190910151600690910180546001600160a01b0319166001600160a01b03909216919091179055565b8260028101928215610393579160200282015b8281111561039357825182546001600160a01b0319166001600160a01b0390911617825560209092019160019091019061035e565b5061039f92915061042d565b5090565b6001830191839082156103935791602002820160005b838211156103f757835183826101000a81548160ff021916908360ff16021790555092602001926001016020816000010492830192600103026103b9565b80156104245782816101000a81549060ff02191690556001016020816000010492830192600103026103f7565b505061039f9291505b5b8082111561039f576000815560010161042e565b634e487b7160e01b600052604160045260246000fd5b60006020828403121561046a57600080fd5b81516001600160401b0381111561048057600080fd5b8201601f8101841361049157600080fd5b80516001600160401b038111156104aa576104aa610442565b604051601f8201601f19908116603f011681016001600160401b03811182821017156104d8576104d8610442565b6040528181528282016020018610156104f057600080fd5b60005b8281101561050f576020818501810151838301820152016104f3565b50600091810160200191909152949350505050565b600181811c9082168061053857607f821691505b60208210810361055857634e487b7160e01b600052602260045260246000fd5b50919050565b601f8211156105a857806000526020600020601f840160051c810160208510156105855750805b601f840160051c820191505b818110156105a55760008155600101610591565b50505b505050565b81516001600160401b038111156105c6576105c6610442565b6105da816105d48454610524565b8461055e565b6020601f82116001811461060e57600083156105f65750848201515b600019600385901b1c1916600184901b1784556105a5565b600084815260208120601f198516915b8281101561063e578785015182556020948501946001909201910161061e565b508482101561065c5786840151600019600387901b60f8161c191681555b50505050600190811b01905550565b634e487b7160e01b600052602160045260246000fd5b614fd7806106906000396000f3fe608060405234801561001057600080fd5b50600436106102945760003560e01c8063703730a511610167578063bf034b69116100ce578063e985e9c511610087578063e985e9c51461062c578063efa1c48214610668578063f1da73391461067d578063f242432a14610685578063f2fde38b14610698578063f71d96cb146106ab57600080fd5b8063bf034b69146105cb578063bf103a4d146105ee578063c4e41b2214610601578063c87b56dd14610609578063d2198cc51461061c578063de96cefc1461062457600080fd5b80639e4ecd11116101205780639e4ecd11146105575780639ec40aa31461055f578063a1b4f57c14610572578063a22cb46514610585578063ba27495614610598578063bd85b039146105ab57600080fd5b8063703730a5146104de578063715018a6146104e6578063845f433b146104ee5780638da5cb5b14610501578063996d7bea1461051c5780639b09cc871461052f57600080fd5b806318160ddd1161020b5780634e1273f4116101c45780634e1273f41461043c5780634f558e791461045c5780635c12cd4b1461047e5780635c93fc3d1461049e578063606d2e96146104b35780636c0360eb146104d657600080fd5b806318160ddd146103a25780632711162e146103ab5780632ca04522146103cb5780632eb2c2d6146103de5780633835e2b5146103f15780634b1146911461041c57600080fd5b806309c95e101161025d57806309c95e10146103145780630daea2cd146103275780630e89341c1461032f57806310898e4c1461034f5780631107ae3d1461036f57806316801d171461038257600080fd5b8062fdd58e14610299578063015a3792146102bf57806301ffc9a7146102d457806302fe5305146102f75780630677aa4e1461030c575b600080fd5b6102ac6102a7366004614069565b6106cf565b6040519081526020015b60405180910390f35b6102c7610768565b6040516102b69190614122565b6102e76102e236600461419d565b610877565b60405190151581526020016102b6565b61030a610305366004614281565b6108c7565b005b6102ac600381565b6102e76103223660046142b5565b6108db565b6102ac600a81565b61034261033d3660046142d0565b61090f565b6040516102b691906142e9565b61036261035d3660046142b5565b6109a3565b6040516102b691906142fc565b6102e761037d366004614281565b610b21565b610395610390366004614281565b610b51565b6040516102b69190614404565b6102ac60065481565b6102ac6103b93660046142b5565b60086020526000908152604090205481565b6103956103d9366004614281565b610d6c565b61030a6103ec3660046144ae565b610f92565b6102ac6103ff366004614281565b805160208183018101805160098252928201919093012091525481565b6102ac61042a3660046142b5565b60076020526000908152604090205481565b61044f61044a366004614561565b610fde565b6040516102b69190614670565b6102e761046a3660046142d0565b600090815260046020526040902054151590565b61049161048c3660046142b5565b6110ff565b6040516102b691906146d6565b6104a66112a3565b6040516102b691906146e9565b6104c66104c13660046142d0565b61146e565b6040516102b69493929190614742565b610342611540565b6102ac600281565b61030a6115ce565b61030a6104fc366004614781565b6115e2565b6003546040516001600160a01b0390911681526020016102b6565b61030a61052a366004614281565b611779565b61054261053d366004614281565b611840565b604080519283526020830191909152016102b6565b6102ac600581565b61030a61056d366004614281565b61186a565b610395610580366004614281565b61191e565b61030a6105933660046147de565b611b8d565b61030a6105a636600461481a565b611b98565b6102ac6105b93660046142d0565b60009081526004602052604090205490565b6105de6105d93660046142d0565b611e8f565b6040516102b69493929190614859565b6102e76105fc3660046142b5565b611f57565b6006546102ac565b6103426106173660046142d0565b611f7e565b6102ac600081565b6102ac600181565b6102e761063a366004614888565b6001600160a01b03918216600090815260016020908152604080832093909416825291909152205460ff1690565b610670611fb2565b6040516102b691906148bb565b6102ac600481565b61030a610693366004614914565b6120d9565b61030a6106a63660046142b5565b61211e565b6106be6106b93660046142d0565b612194565b6040516102b695949392919061496c565b60006001600160a01b03831661073f5760405162461bcd60e51b815260206004820152602a60248201527f455243313135353a2061646472657373207a65726f206973206e6f742061207660448201526930b634b21037bbb732b960b11b60648201526084015b60405180910390fd5b506000818152602081815260408083206001600160a01b03861684529091529020545b92915050565b6060600b805480602002602001604051908101604052809291908181526020016000905b8282101561086e57838290600052602060002090600402016040518060800160405290816000820180546107bf906149af565b80601f01602080910402602001604051908101604052809291908181526020018280546107eb906149af565b80156108385780601f1061080d57610100808354040283529160200191610838565b820191906000526020600020905b81548152906001019060200180831161081b57829003601f168201915b5050505050815260200160018201548152602001600282015481526020016003820154815250508152602001906001019061078c565b50505050905090565b60006001600160e01b03198216636cdb3d1360e11b14806108a857506001600160e01b031982166303a24d0760e21b145b8061076257506301ffc9a760e01b6001600160e01b0319831614610762565b6108cf61226d565b6108d8816122c7565b50565b6001600160a01b038116600090815260076020526040812054810361090257506000919050565b506001919050565b919050565b60606002805461091e906149af565b80601f016020809104026020016040519081016040528092919081815260200182805461094a906149af565b80156109975780601f1061096c57610100808354040283529160200191610997565b820191906000526020600020905b81548152906001019060200180831161097a57829003601f168201915b50505050509050919050565b6109ce6040518060800160405280606081526020016000815260200160008152602001600081525090565b6109d782611f57565b610a235760405162461bcd60e51b815260206004820152601960248201527f47616d6520746f6b656e20646f65736e277420657869737421000000000000006044820152606401610736565b6001600160a01b038216600090815260086020526040902054600b80549091908110610a5157610a516149e9565b9060005260206000209060040201604051806080016040529081600082018054610a7a906149af565b80601f0160208091040260200160405190810160405280929190818152602001828054610aa6906149af565b8015610af35780601f10610ac857610100808354040283529160200191610af3565b820191906000526020600020905b815481529060010190602001808311610ad657829003601f168201915b5050505050815260200160018201548152602001600282015481526020016003820154815250509050919050565b6000600982604051610b3391906149ff565b90815260200160405180910390205460000361090257506000919050565b610b59613ef6565b610b6282610b21565b610ba65760405162461bcd60e51b8152602060048201526015602482015274426174746c6520646f65736e27742065786973742160581b6044820152606401610736565b600c600983604051610bb891906149ff565b90815260200160405180910390205481548110610bd757610bd76149e9565b600091825260209091206040805160c081019091526007909202018054829060ff166002811115610c0a57610c0a61430f565b6002811115610c1b57610c1b61430f565b815260200160018201548152602001600282018054610c39906149af565b80601f0160208091040260200160405190810160405280929190818152602001828054610c65906149af565b8015610cb25780601f10610c8757610100808354040283529160200191610cb2565b820191906000526020600020905b815481529060010190602001808311610c9557829003601f168201915b5050509183525050604080518082019182905260209092019190600384019060029082845b81546001600160a01b03168152600190910190602001808311610cd75750505091835250506040805180820191829052602090920191906005840190600290826000855b825461010083900a900460ff16815260206001928301818104948501949093039092029101808411610d1b57505050928452505050600691909101546001600160a01b031660209091015292915050565b610d74613ef6565b610d7d336108db565b610dc95760405162461bcd60e51b815260206004820152601c60248201527f506c6561736520526567697374657220506c61796572204669727374000000006044820152606401610736565b610dd282610b21565b15610e185760405162461bcd60e51b8152602060048201526016602482015275426174746c6520616c7265616479206578697374732160501b6044820152606401610736565b600082604051602001610e2b91906142e9565b60408051808303601f19018152828252805160209182012060c084018352600080855282850182905284840188905283518085018552338152808401829052606086015283518085018552818152928301819052608085019290925260a0840191909152600c5491519093508190600990610ea79088906149ff565b90815260405190819003602001902055600c805460018181018355600092909252835160079091027fdf6966c971051c3d54ec59162606531493a51404a002842f56009d7e5cf4a8c70180548593919291839160ff191690836002811115610f1157610f1161430f565b02179055506020820151600182015560408201516002820190610f349082614a62565b506060820151610f4a9060038301906002613f39565b506080820151610f609060058301906002613f91565b5060a09190910151600690910180546001600160a01b0319166001600160a01b03909216919091179055509392505050565b6001600160a01b038516331480610fae5750610fae853361063a565b610fca5760405162461bcd60e51b815260040161073690614b20565b610fd785858585856122d3565b5050505050565b606081518351146110435760405162461bcd60e51b815260206004820152602960248201527f455243313135353a206163636f756e747320616e6420696473206c656e677468604482015268040dad2e6dac2e8c6d60bb1b6064820152608401610736565b600083516001600160401b0381111561105e5761105e6141c1565b604051908082528060200260200182016040528015611087578160200160208202803683370190505b50905060005b84518110156110f7576110d28582815181106110ab576110ab6149e9565b60200260200101518583815181106110c5576110c56149e9565b60200260200101516106cf565b8282815181106110e4576110e46149e9565b602090810291909101015260010161108d565b509392505050565b61113c6040518060a0016040528060006001600160a01b031681526020016060815260200160008152602001600081526020016000151581525090565b611145826108db565b6111895760405162461bcd60e51b8152602060048201526015602482015274506c6179657220646f65736e27742065786973742160581b6044820152606401610736565b6001600160a01b038216600090815260076020526040902054600a805490919081106111b7576111b76149e9565b60009182526020918290206040805160a0810190915260059092020180546001600160a01b0316825260018101805492939192918401916111f7906149af565b80601f0160208091040260200160405190810160405280929190818152602001828054611223906149af565b80156112705780601f1061124557610100808354040283529160200191611270565b820191906000526020600020905b81548152906001019060200180831161125357829003601f168201915b5050509183525050600282015460208201526003820154604082015260049091015460ff16151560609091015292915050565b6060600c805480602002602001604051908101604052809291908181526020016000905b8282101561086e576000848152602090206040805160c08101909152600784029091018054829060ff1660028111156113025761130261430f565b60028111156113135761131361430f565b815260200160018201548152602001600282018054611331906149af565b80601f016020809104026020016040519081016040528092919081815260200182805461135d906149af565b80156113aa5780601f1061137f576101008083540402835291602001916113aa565b820191906000526020600020905b81548152906001019060200180831161138d57829003601f168201915b5050509183525050604080518082019182905260209092019190600384019060029082845b81546001600160a01b031681526001909101906020018083116113cf5750505091835250506040805180820191829052602090920191906005840190600290826000855b825461010083900a900460ff1681526020600192830181810494850194909303909202910180841161141357505050928452505050600691909101546001600160a01b031660209182015290825260019290920191016112c7565b600c818154811061147e57600080fd5b600091825260209091206007909102018054600182015460028301805460ff90931694509092916114ae906149af565b80601f01602080910402602001604051908101604052809291908181526020018280546114da906149af565b80156115275780601f106114fc57610100808354040283529160200191611527565b820191906000526020600020905b81548152906001019060200180831161150a57829003601f168201915b505050600690930154919250506001600160a01b031684565b6005805461154d906149af565b80601f0160208091040260200160405190810160405280929190818152602001828054611579906149af565b80156115c65780601f1061159b576101008083540402835291602001916115c6565b820191906000526020600020905b8154815290600101906020018083116115a957829003601f168201915b505050505081565b6115d661226d565b6115e060006124b7565b565b6115eb336108db565b156116385760405162461bcd60e51b815260206004820152601960248201527f506c6179657220616c72656164792072656769737465726564000000000000006044820152606401610736565b600a80546040805160a08101825233815260208101868152918101849052601960608201526000608082018190526001840185559390935282517fc65a7bb8d6351c1cf70c95a316cc6a92839c986682d98bc35f958f4883f9d2a86005840290810180546001600160a01b0319166001600160a01b03909316929092178255915192939290917fc65a7bb8d6351c1cf70c95a316cc6a92839c986682d98bc35f958f4883f9d2a901906116eb9082614a62565b506040828101516002830155606083015160038301556080909201516004909101805460ff19169115159190911790553360009081526007602052208190556117338261186a565b336001600160a01b03167f81ef79d1cda814a60c0fc60792e648a06d9c6bae67176346d1cc8b63030bfccd8460405161176c91906142e9565b60405180910390a2505050565b600061178482610b51565b6060810151519091506001600160a01b03163314806117b357506060810151602001516001600160a01b031633145b6117ff5760405162461bcd60e51b815260206004820152601b60248201527f596f7520617265206e6f7420696e207468697320626174746c652100000000006044820152606401610736565b6060810151516001600160a01b0316331461183057606081015161182b9060005b602002015182612509565b505050565b606081015161182b906001611820565b600080600061184e84610b51565b60800151805160209091015160ff918216969116945092505050565b611873336110ff565b60800151156118bc5760405162461bcd60e51b8152602060048201526015602482015274506c6179657220697320696e206120626174746c6560581b6044820152606401610736565b6118c5336108db565b6119115760405162461bcd60e51b815260206004820152601c60248201527f506c6561736520526567697374657220506c61796572204669727374000000006044820152606401610736565b61191a816127c0565b5050565b611926613ef6565b600061193183610b51565b90506000815160028111156119485761194861430f565b146119955760405162461bcd60e51b815260206004820152601760248201527f426174746c6520616c72656164792073746172746564210000000000000000006044820152606401610736565b606081015151336001600160a01b03909116036119fe5760405162461bcd60e51b815260206004820152602160248201527f4f6e6c7920706c617965722074776f2063616e206a6f696e206120626174746c6044820152606560f81b6064820152608401610736565b611a07336110ff565b6080015115611a4c5760405162461bcd60e51b8152602060048201526011602482015270416c726561647920696e20626174746c6560781b6044820152606401610736565b60018152606081015133602090910152611a6683826129cb565b6001600a600760008460600151600060028110611a8557611a856149e9565b60200201516001600160a01b03166001600160a01b031681526020019081526020016000205481548110611abb57611abb6149e9565b60009182526020808320600592909202909101600401805460ff19169315159390931790925560608301518201516001600160a01b0316815260079091526040902054600a8054600192908110611b1457611b146149e9565b60009182526020822060059190910201600401805460ff1916921515929092179091556060820151339160200201516001600160a01b03167f024187b16c217a79f8d8e6252b542ec6e278fa91304acd9cfd866f2bbf00bd088360400151604051611b7f91906142e9565b60405180910390a392915050565b61191a338383612af7565b6000611ba382610b51565b9050600181516002811115611bba57611bba61430f565b14611c375760405162461bcd60e51b815260206004820152604160248201527f426174746c65206e6f7420737461727465642e20506c656173652074656c6c2060448201527f616e6f7468657220706c6179657220746f206a6f696e2074686520626174746c6064820152606560f81b608482015260a401610736565b600281516002811115611c4c57611c4c61430f565b03611c995760405162461bcd60e51b815260206004820152601860248201527f426174746c652068617320616c726561647920656e64656400000000000000006044820152606401610736565b6060810151516001600160a01b0316331480611cc557506060810151602001516001600160a01b031633145b611d115760405162461bcd60e51b815260206004820152601a60248201527f596f7520617265206e6f7420696e207468697320626174746c650000000000006044820152606401610736565b60808101516060820151516001600160a01b03163314611d32576001611d35565b60005b60ff1660028110611d4857611d486149e9565b602002015160ff1615611d9d5760405162461bcd60e51b815260206004820152601d60248201527f596f75206861766520616c7265616479206d6164652061206d6f7665210000006044820152606401610736565b606081015151611dca906001600160a01b03163314611dbd576001611dc0565b60005b60ff168484612bd7565b611dd382610b51565b60808101516020015190915060009060ff1615611df1576001611df4565b60005b60808301515160ff1615611e09576001611e0c565b60005b611e17906002614b85565b611e219190614b85565b60ff16905080600114611e35576000611e38565b60015b151583604051611e4891906149ff565b604051908190038120907f54b82b77e7ae55a8e6c9e89deba70c7191dea2a3b08ae647b380e9f981d6a0f890600090a380600003611e8957611e8983612d2c565b50505050565b600b8181548110611e9f57600080fd5b9060005260206000209060040201600091509050806000018054611ec2906149af565b80601f0160208091040260200160405190810160405280929190818152602001828054611eee906149af565b8015611f3b5780601f10611f1057610100808354040283529160200191611f3b565b820191906000526020600020905b815481529060010190602001808311611f1e57829003601f168201915b5050505050908060010154908060020154908060030154905084565b6001600160a01b038116600090815260086020526040812054810361090257506000919050565b60606005611f8b83612e46565b604051602001611f9c929190614b9e565b6040516020818303038152906040529050919050565b6060600a805480602002602001604051908101604052809291908181526020016000905b8282101561086e5760008481526020908190206040805160a081019091526005850290910180546001600160a01b03168252600181018054929391929184019161201f906149af565b80601f016020809104026020016040519081016040528092919081815260200182805461204b906149af565b80156120985780601f1061206d57610100808354040283529160200191612098565b820191906000526020600020905b81548152906001019060200180831161207b57829003601f168201915b505050918352505060028201546020808301919091526003830154604083015260049092015460ff1615156060909101529082526001929092019101611fd6565b6001600160a01b0385163314806120f557506120f5853361063a565b6121115760405162461bcd60e51b815260040161073690614b20565b610fd78585858585612f71565b61212661226d565b6001600160a01b03811661218b5760405162461bcd60e51b815260206004820152602660248201527f4f776e61626c653a206e6577206f776e657220697320746865207a65726f206160448201526564647265737360d01b6064820152608401610736565b6108d8816124b7565b600a81815481106121a457600080fd5b6000918252602090912060059091020180546001820180546001600160a01b039092169350906121d3906149af565b80601f01602080910402602001604051908101604052809291908181526020018280546121ff906149af565b801561224c5780601f106122215761010080835404028352916020019161224c565b820191906000526020600020905b81548152906001019060200180831161222f57829003601f168201915b50505050600283015460038401546004909401549293909290915060ff1685565b6003546001600160a01b031633146115e05760405162461bcd60e51b815260206004820181905260248201527f4f776e61626c653a2063616c6c6572206973206e6f7420746865206f776e65726044820152606401610736565b600261191a8282614a62565b81518351146123355760405162461bcd60e51b815260206004820152602860248201527f455243313135353a2069647320616e6420616d6f756e7473206c656e677468206044820152670dad2e6dac2e8c6d60c31b6064820152608401610736565b6001600160a01b03841661235b5760405162461bcd60e51b815260040161073690614c49565b3361236a8187878787876130a9565b60005b845181101561244957600085828151811061238a5761238a6149e9565b6020026020010151905060008583815181106123a8576123a86149e9565b602090810291909101810151600084815280835260408082206001600160a01b038e1683529093529190912054909150818110156123f85760405162461bcd60e51b815260040161073690614c8e565b6000838152602081815260408083206001600160a01b038e8116855292528083208585039055908b16825281208054849290612435908490614cd8565b90915550506001909301925061236d915050565b50846001600160a01b0316866001600160a01b0316826001600160a01b03167f4a39dc06d4c0dbc64b70af90fd698a233a518aa5d07e595d983b8c0526c8f7fb8787604051612499929190614ceb565b60405180910390a46124af8187878787876130b7565b505050505050565b600380546001600160a01b038381166001600160a01b0319831681179093556040519116919082907f8be0079c531659141344cd1fd0a4f28419497f9722a3daafe3b4186f6b6457e090600090a35050565b612511613ef6565b6002825160028111156125265761252661430f565b0361256a5760405162461bcd60e51b815260206004820152601460248201527310985d1d1b1948185b1c9958591e48195b99195960621b6044820152606401610736565b600282526001600160a01b03831660a0830152604082015161258c90836129cb565b60006007600084606001516000600281106125a9576125a96149e9565b60200201516001600160a01b03166001600160a01b0316815260200190815260200160002054905060006007600085606001516001600281106125ee576125ee6149e9565b60200201516001600160a01b03166001600160a01b031681526020019081526020016000205490506000600a838154811061262b5761262b6149e9565b906000526020600020906005020160040160006101000a81548160ff0219169083151502179055506019600a8381548110612668576126686149e9565b906000526020600020906005020160030181905550600a808381548110612691576126916149e9565b9060005260206000209060050201600201819055506000600a82815481106126bb576126bb6149e9565b906000526020600020906005020160040160006101000a81548160ff0219169083151502179055506019600a82815481106126f8576126f86149e9565b906000526020600020906005020160030181905550600a808281548110612721576127216149e9565b60009182526020822060059190910201600201919091556060850151516001600160a01b0387811691161461275b57606085015151612765565b6060850151602001515b9050806001600160a01b0316866001600160a01b03167fae6e5eafb6cd1cb4b139e7a0b9140aa182ee7d50e99f50d660156f79212acbc087604001516040516127ae91906142e9565b60405180910390a35092949350505050565b6127eb6040518060800160405280606081526020016000815260200160008152602001600081525090565b60006127f8600a3361321b565b9050600061280782600a614d19565b905060006064423360405160200161283b92919091825260601b6bffffffffffffffffffffffff1916602082015260340190565b6040516020818303038152906040528051906020012060001c61285e9190614d42565b905061286b600682614d56565b90508060ff16600003612886578061288281614d78565b9150505b6040805160808101825286815260ff8316602082015290810184905260608101839052600b805460018101825560009190915281518290600483027f0175b7a638427703f0dbe7bb9bbf987a2551717b34e79f33b5b1008d1fa01db9019081906128f09082614a62565b5060208201518160010155604082015181600201556060820151816003015550508060086000336001600160a01b03166001600160a01b0316815260200190815260200160002081905550612966338460ff1660016040518060400160405280600381526020016203078360ec1b815250613299565b6006805490600061297683614d97565b90915550506040805160ff851681526020810187905290810185905233907fca8ab07e9ed17d119729fc652dd24df9d8430ca862dda4631925b5b4b99da3629060600160405180910390a25095945050505050565b6129d482610b21565b612a175760405162461bcd60e51b815260206004820152601460248201527310985d1d1b1948191bd95cdb89dd08195e1a5cdd60621b6044820152606401610736565b80600c600984604051612a2a91906149ff565b90815260200160405180910390205481548110612a4957612a496149e9565b6000918252602090912082516007909202018054909190829060ff19166001836002811115612a7a57612a7a61430f565b02179055506020820151600182015560408201516002820190612a9d9082614a62565b506060820151612ab39060038301906002613f39565b506080820151612ac99060058301906002613f91565b5060a09190910151600690910180546001600160a01b0319166001600160a01b039092169190911790555050565b816001600160a01b0316836001600160a01b031603612b6a5760405162461bcd60e51b815260206004820152602960248201527f455243313135353a2073657474696e6720617070726f76616c20737461747573604482015268103337b91039b2b63360b91b6064820152608401610736565b6001600160a01b03838116600081815260016020908152604080832094871680845294825291829020805460ff191686151590811790915591519182527f17307eab39ab6107e8899845ad3d59bd9653f200f220920489ca2b5937696c31910160405180910390a3505050565b8160ff1660011480612bec57508160ff166002145b612c385760405162461bcd60e51b815260206004820152601f60248201527f43686f6963652073686f756c64206265206569746865722031206f72203221006044820152606401610736565b8160ff16600114612c4a576001612c5c565b6003612c55336110ff565b6040015110155b612cb35760405162461bcd60e51b815260206004820152602260248201527f4d616e61206e6f742073756666696369656e7420666f722061747461636b696e604482015261672160f01b6064820152608401610736565b81600c600983604051612cc691906149ff565b90815260200160405180910390205481548110612ce557612ce56149e9565b90600052602060002090600702016005018460028110612d0757612d076149e9565b602091828204019190066101000a81548160ff021916908360ff160217905550505050565b6000612d3782610b51565b6060810151519091506001600160a01b0316331480612d6657506060810151602001516001600160a01b031633145b612dc65760405162461bcd60e51b815260206004820152602b60248201527f4f6e6c7920706c617965727320696e207468697320626174746c652063616e2060448201526a6d616b652061206d6f766560a81b6064820152608401610736565b60808101515160ff1615801590612de7575060808101516020015160ff1615155b612e3d5760405162461bcd60e51b815260206004820152602160248201527f506c6179657273207374696c6c206e65656420746f206d616b652061206d6f766044820152606560f81b6064820152608401610736565b61191a816133b3565b606081600003612e6d5750506040805180820190915260018152600360fc1b602082015290565b8160005b8115612e975780612e8181614d97565b9150612e909050600a83614db0565b9150612e71565b6000816001600160401b03811115612eb157612eb16141c1565b6040519080825280601f01601f191660200182016040528015612edb576020820181803683370190505b509050815b8515612f6857612ef1600182614d19565b90506000612f00600a88614db0565b612f0b90600a614dc4565b612f159088614d19565b612f20906030614ddb565b905060008160f81b905080848481518110612f3d57612f3d6149e9565b60200101906001600160f81b031916908160001a905350612f5f600a89614db0565b97505050612ee0565b50949350505050565b6001600160a01b038416612f975760405162461bcd60e51b815260040161073690614c49565b336000612fa385613c88565b90506000612fb085613c88565b9050612fc08389898585896130a9565b6000868152602081815260408083206001600160a01b038c168452909152902054858110156130015760405162461bcd60e51b815260040161073690614c8e565b6000878152602081815260408083206001600160a01b038d8116855292528083208985039055908a1682528120805488929061303e908490614cd8565b909155505060408051888152602081018890526001600160a01b03808b16928c821692918816917fc3d58168c5ae7397731d063d5bbf3d657854427343f4c083240f7aacaa2d0f62910160405180910390a461309e848a8a8a8a8a613cd3565b505050505050505050565b6124af868686868686613d8e565b6001600160a01b0384163b156124af5760405163bc197c8160e01b81526001600160a01b0385169063bc197c81906130fb9089908990889088908890600401614df4565b6020604051808303816000875af1925050508015613136575060408051601f3d908101601f1916820190925261313391810190614e52565b60015b6131e257613142614e6f565b806308c379a00361317b5750613156614e8b565b80613161575061317d565b8060405162461bcd60e51b815260040161073691906142e9565b505b60405162461bcd60e51b815260206004820152603460248201527f455243313135353a207472616e7366657220746f206e6f6e20455243313135356044820152732932b1b2b4bb32b91034b6b83632b6b2b73a32b960611b6064820152608401610736565b6001600160e01b0319811663bc197c8160e01b146132125760405162461bcd60e51b815260040161073690614f06565b50505050505050565b60008044428460405160200161325693929190928352602083019190915260601b6bffffffffffffffffffffffff1916604082015260540190565b60408051601f198184030181529190528051602090910120905061327a8482614d42565b9150816000036132925761328f600285614db0565b91505b5092915050565b6001600160a01b0384166132f95760405162461bcd60e51b815260206004820152602160248201527f455243313135353a206d696e7420746f20746865207a65726f206164647265736044820152607360f81b6064820152608401610736565b33600061330585613c88565b9050600061331285613c88565b9050613323836000898585896130a9565b6000868152602081815260408083206001600160a01b038b16845290915281208054879290613353908490614cd8565b909155505060408051878152602081018790526001600160a01b03808a1692600092918716917fc3d58168c5ae7397731d063d5bbf3d657854427343f4c083240f7aacaa2d0f62910160405180910390a461321283600089898989613cd3565b60006040518060a001604052806007600085606001516000600281106133db576133db6149e9565b60200201516001600160a01b03166001600160a01b03168152602001908152602001600020548152602001836080015160006002811061341d5761341d6149e9565b602002015160ff16815260200161344e8460600151600060028110613444576134446149e9565b60200201516110ff565b60600151815260200161347b8460600151600060028110613471576134716149e9565b60200201516109a3565b60400151815260200161349e8460600151600060028110613471576134716149e9565b60600151815250905060006040518060a001604052806007600086606001516001600281106134cf576134cf6149e9565b60200201516001600160a01b03166001600160a01b031681526020019081526020016000205481526020018460800151600160028110613511576135116149e9565b602002015160ff1681526020016135388560600151600160028110613444576134446149e9565b60600151815260200161355b8560600151600160028110613471576134716149e9565b60400151815260200161357e8560600151600160028110613471576134716149e9565b6060015190526040805180820190915260008082526020808301919091528401519192509060011480156135b6575081602001516001145b1561370d5781604001518360600151106135e75760608401516135e19060005b602002015185612509565b50613a28565b82604001518260600151106136065760608401516135e19060016135d6565b8160600151600a846000015181548110613622576136226149e9565b906000526020600020906005020160030160008282546136429190614d19565b909155505060608301518251600a80549091908110613663576136636149e9565b906000526020600020906005020160030160008282546136839190614d19565b90915550508251600a80546003929081106136a0576136a06149e9565b906000526020600020906005020160020160008282546136c09190614d19565b90915550508151600a80546003929081106136dd576136dd6149e9565b906000526020600020906005020160020160008282546136fd9190614d19565b9091555050506060830151613a28565b82602001516001148015613725575081602001516002145b1561385c576000826080015183604001516137409190614cd8565b90508084606001511061376a5760608501516137649060005b602002015186612509565b506135e1565b6000846060015184608001511115613787575060408301516137ad565b60608501516137969083614d19565b6060870151602001516001600160a01b0316845290505b80600a8560000151815481106137c5576137c56149e9565b9060005260206000209060050201600301819055506003600a8660000151815481106137f3576137f36149e9565b906000526020600020906005020160020160008282546138139190614d19565b90915550508351600a8054600392908110613830576138306149e9565b906000526020600020906005020160020160008282546138509190614cd8565b90915550505050613a28565b82602001516002148015613874575081602001516001145b1561398f5760008360800151846040015161388f9190614cd8565b9050808360600151106138ac576060850151613764906001613759565b60008360600151856080015111156138c9575060408401516138ec565b60608401516138d89083614d19565b6060870151516001600160a01b0316845290505b80600a866000015181548110613904576139046149e9565b9060005260206000209060050201600301819055506003600a866000015181548110613932576139326149e9565b906000526020600020906005020160020160008282546139529190614cd8565b90915550508351600a805460039290811061396f5761396f6149e9565b906000526020600020906005020160020160008282546138509190614d19565b826020015160021480156139a7575081602001516002145b15613a28576003600a8460000151815481106139c5576139c56149e9565b906000526020600020906005020160020160008282546139e59190614cd8565b90915550508151600a8054600392908110613a0257613a026149e9565b90600052602060002090600502016002016000828254613a229190614cd8565b90915550505b7fc6bf860cbc15f7020f73993a671f01bbb1831a8a7a12c126ca735eb632e7577581604051613a579190614f4e565b60405180910390a16080840180516000908190529051602001526040840151613a8090856129cb565b6000613aa8600a8660600151600060028110613a9e57613a9e6149e9565b602002015161321b565b905080600b600860008860600151600060028110613ac857613ac86149e9565b60200201516001600160a01b03166001600160a01b031681526020019081526020016000205481548110613afe57613afe6149e9565b6000918252602090912060026004909202010155613b1d81600a614d19565b600b600860008860600151600060028110613b3a57613b3a6149e9565b60200201516001600160a01b03166001600160a01b031681526020019081526020016000205481548110613b7057613b706149e9565b9060005260206000209060040201600301819055506000613ba3600a8760600151600160028110613a9e57613a9e6149e9565b905080600b600860008960600151600160028110613bc357613bc36149e9565b60200201516001600160a01b03166001600160a01b031681526020019081526020016000205481548110613bf957613bf96149e9565b6000918252602090912060026004909202010155613c1881600a614d19565b600b600860008960600151600160028110613c3557613c356149e9565b60200201516001600160a01b03166001600160a01b031681526020019081526020016000205481548110613c6b57613c6b6149e9565b906000526020600020906004020160030181905550505050505050565b60408051600180825281830190925260609160009190602080830190803683370190505090508281600081518110613cc257613cc26149e9565b602090810291909101015292915050565b6001600160a01b0384163b156124af5760405163f23a6e6160e01b81526001600160a01b0385169063f23a6e6190613d179089908990889088908890600401614f5c565b6020604051808303816000875af1925050508015613d52575060408051601f3d908101601f19168201909252613d4f91810190614e52565b60015b613d5e57613142614e6f565b6001600160e01b0319811663f23a6e6160e01b146132125760405162461bcd60e51b815260040161073690614f06565b6001600160a01b038516613e0c5760005b8351811015613e0a57828181518110613dba57613dba6149e9565b602002602001015160046000868481518110613dd857613dd86149e9565b602002602001015181526020019081526020016000206000828254613dfd9190614cd8565b9091555050600101613d9f565b505b6001600160a01b0384166124af5760005b8351811015613212576000848281518110613e3a57613e3a6149e9565b602002602001015190506000848381518110613e5857613e586149e9565b6020026020010151905060006004600084815260200190815260200160002054905081811015613edb5760405162461bcd60e51b815260206004820152602860248201527f455243313135353a206275726e20616d6f756e74206578636565647320746f74604482015267616c537570706c7960c01b6064820152608401610736565b60009283526004602052604090922091039055600101613e1d565b6040805160c0810190915280600081526000602082015260606040820181905201613f1f61401f565b8152602001613f2c61401f565b8152600060209091015290565b8260028101928215613f81579160200282015b82811115613f8157825182546001600160a01b0319166001600160a01b03909116178255602090920191600190910190613f4c565b50613f8d92915061403d565b5090565b600183019183908215613f815791602002820160005b83821115613fe557835183826101000a81548160ff021916908360ff1602179055509260200192600101602081600001049283019260010302613fa7565b80156140125782816101000a81549060ff0219169055600101602081600001049283019260010302613fe5565b5050613f8d92915061403d565b60405180604001604052806002906020820280368337509192915050565b5b80821115613f8d576000815560010161403e565b80356001600160a01b038116811461090a57600080fd5b6000806040838503121561407c57600080fd5b61408583614052565b946020939093013593505050565b60005b838110156140ae578181015183820152602001614096565b50506000910152565b600081518084526140cf816020860160208601614093565b601f01601f19169290920160200192915050565b60008151608084526140f860808501826140b7565b90506020830151602085015260408301516040850152606083015160608501528091505092915050565b6000602082016020835280845180835260408501915060408160051b86010192506020860160005b8281101561417b57603f198786030184526141668583516140e3565b9450602093840193919091019060010161414a565b50929695505050505050565b6001600160e01b0319811681146108d857600080fd5b6000602082840312156141af57600080fd5b81356141ba81614187565b9392505050565b634e487b7160e01b600052604160045260246000fd5b601f8201601f191681016001600160401b03811182821017156141fc576141fc6141c1565b6040525050565b600082601f83011261421457600080fd5b8135602083016000806001600160401b03841115614234576142346141c1565b50604051601f8401601f19166020019061424e82826141d7565b80925084815287858501111561426357600080fd5b84846020830137600060208683010152809550505050505092915050565b60006020828403121561429357600080fd5b81356001600160401b038111156142a957600080fd5b61328f84828501614203565b6000602082840312156142c757600080fd5b6141ba82614052565b6000602082840312156142e257600080fd5b5035919050565b6020815260006141ba60208301846140b7565b6020815260006141ba60208301846140e3565b634e487b7160e01b600052602160045260246000fd5b6003811061434357634e487b7160e01b600052602160045260246000fd5b9052565b8060005b6002811015611e895781516001600160a01b031684526020938401939091019060010161434b565b61437e828251614325565b602081015160208301526000604082015161010060408501526143a56101008501826140b7565b905060608301516143b96060860182614347565b50608083015160a0850160005b60028110156143e857825160ff168252602092830192909101906001016143c6565b50505060a08301516001600160a01b03811660e08601526110f7565b6020815260006141ba6020830184614373565b60006001600160401b03821115614430576144306141c1565b5060051b60200190565b600082601f83011261444b57600080fd5b813561445681614417565b60405161446382826141d7565b80915082815260208101915060208360051b86010192508583111561448757600080fd5b602085015b838110156144a457803583526020928301920161448c565b5095945050505050565b600080600080600060a086880312156144c657600080fd5b6144cf86614052565b94506144dd60208701614052565b935060408601356001600160401b038111156144f857600080fd5b6145048882890161443a565b93505060608601356001600160401b0381111561452057600080fd5b61452c8882890161443a565b92505060808601356001600160401b0381111561454857600080fd5b61455488828901614203565b9150509295509295909350565b6000806040838503121561457457600080fd5b82356001600160401b0381111561458a57600080fd5b8301601f8101851361459b57600080fd5b80356145a681614417565b6040516145b382826141d7565b80915082815260208101915060208360051b8501019250878311156145d757600080fd5b6020840193505b82841015614600576145ef84614052565b8252602093840193909101906145de565b945050505060208301356001600160401b0381111561461e57600080fd5b61462a8582860161443a565b9150509250929050565b600081518084526020840193506020830160005b82811015614666578151865260209586019590910190600101614648565b5093949350505050565b6020815260006141ba6020830184614634565b60018060a01b0381511682526000602082015160a060208501526146aa60a08501826140b7565b905060408301516040850152606083015160608501526080830151151560808501528091505092915050565b6020815260006141ba6020830184614683565b6000602082016020835280845180835260408501915060408160051b86010192506020860160005b8281101561417b57603f1987860301845261472d858351614373565b94506020938401939190910190600101614711565b61474c8186614325565b83602082015260806040820152600061476860808301856140b7565b905060018060a01b038316606083015295945050505050565b6000806040838503121561479457600080fd5b82356001600160401b038111156147aa57600080fd5b6147b685828601614203565b92505060208301356001600160401b038111156147d257600080fd5b61462a85828601614203565b600080604083850312156147f157600080fd5b6147fa83614052565b91506020830135801515811461480f57600080fd5b809150509250929050565b6000806040838503121561482d57600080fd5b823560ff8116811461483e57600080fd5b915060208301356001600160401b038111156147d257600080fd5b60808152600061486c60808301876140b7565b6020830195909552506040810192909252606090910152919050565b6000806040838503121561489b57600080fd5b6148a483614052565b91506148b260208401614052565b90509250929050565b6000602082016020835280845180835260408501915060408160051b86010192506020860160005b8281101561417b57603f198786030184526148ff858351614683565b945060209384019391909101906001016148e3565b600080600080600060a0868803121561492c57600080fd5b61493586614052565b945061494360208701614052565b9350604086013592506060860135915060808601356001600160401b0381111561454857600080fd5b6001600160a01b038616815260a060208201819052600090614990908301876140b7565b6040830195909552506060810192909252151560809091015292915050565b600181811c908216806149c357607f821691505b6020821081036149e357634e487b7160e01b600052602260045260246000fd5b50919050565b634e487b7160e01b600052603260045260246000fd5b60008251614a11818460208701614093565b9190910192915050565b601f82111561182b57806000526020600020601f840160051c81016020851015614a425750805b601f840160051c820191505b81811015610fd75760008155600101614a4e565b81516001600160401b03811115614a7b57614a7b6141c1565b614a8f81614a8984546149af565b84614a1b565b6020601f821160018114614ac35760008315614aab5750848201515b600019600385901b1c1916600184901b178455610fd7565b600084815260208120601f198516915b82811015614af35787850151825560209485019460019092019101614ad3565b5084821015614b115786840151600019600387901b60f8161c191681555b50505050600190811b01905550565b6020808252602f908201527f455243313135353a2063616c6c6572206973206e6f7420746f6b656e206f776e60408201526e195c881b9bdc88185c1c1c9bdd9959608a1b606082015260800190565b634e487b7160e01b600052601160045260246000fd5b60ff828116828216039081111561076257610762614b6f565b6000808454614bac816149af565b600182168015614bc35760018114614bd857614c08565b60ff1983168652811515820286019350614c08565b87600052602060002060005b83811015614c0057815488820152600190910190602001614be4565b505081860193505b505050602f60f81b81528351614c25816001840160208801614093565b614c3f60018284010164173539b7b760d91b815260050190565b9695505050505050565b60208082526025908201527f455243313135353a207472616e7366657220746f20746865207a65726f206164604082015264647265737360d81b606082015260800190565b6020808252602a908201527f455243313135353a20696e73756666696369656e742062616c616e636520666f60408201526939103a3930b739b332b960b11b606082015260800190565b8082018082111561076257610762614b6f565b604081526000614cfe6040830185614634565b8281036020840152614d108185614634565b95945050505050565b8181038181111561076257610762614b6f565b634e487b7160e01b600052601260045260246000fd5b600082614d5157614d51614d2c565b500690565b600060ff831680614d6957614d69614d2c565b8060ff84160691505092915050565b600060ff821660ff8103614d8e57614d8e614b6f565b60010192915050565b600060018201614da957614da9614b6f565b5060010190565b600082614dbf57614dbf614d2c565b500490565b808202811582820484141761076257610762614b6f565b60ff818116838216019081111561076257610762614b6f565b6001600160a01b0386811682528516602082015260a060408201819052600090614e2090830186614634565b8281036060840152614e328186614634565b90508281036080840152614e4681856140b7565b98975050505050505050565b600060208284031215614e6457600080fd5b81516141ba81614187565b600060033d1115614e885760046000803e5060005160e01c5b90565b600060443d1015614e995790565b6040513d600319016004823e80513d60248201116001600160401b0382111715614ec257505090565b80820180516001600160401b03811115614edd575050505090565b3d8401600319018282016020011115614ef7575050505090565b6110f7602082850101856141d7565b60208082526028908201527f455243313135353a204552433131353552656365697665722072656a656374656040820152676420746f6b656e7360c01b606082015260800190565b604081016107628284614347565b6001600160a01b03868116825285166020820152604081018490526060810183905260a060808201819052600090614f96908301846140b7565b97965050505050505056fea26469706673582212205e8824d14fec4a0687ae2fde0e3d34946e40896a1ccedb179322dcc73e164c0564736f6c634300081c0033",
  "linkReferences": {},
  "deployedLinkReferences": {}
}